:0200000460009A
:1020000000000220092300608D230060A3B000605F
:10201000912300609323006095230060000000007E
:10202000000000000000000000000000A12300608C
:102030009923006000000000D1230060B1480060D7
:10204000BBAA0060C3AA0060CBAA0060D3AA00604C
:10205000DBAA0060E3AA0060EBAA0060F3AA0060BC
:10206000FBAA006003AB00600BAB006013AB006029
:102070001BAB006023AB00602BAB006033AB006098
:102080003BAB006043AB00604BAB006053AB006008
:102090005BAB006063AB00606BAB006073AB006078
:1020A0007BAB006083AB00608BAB006093AB0060E8
:1020B0009BAB0060A3AB0060ABAB0060B3AB006058
:1020C000BBAB0060C3AB0060CBAB0060D3AB0060C8
:1020D000DBAB0060E3AB0060EBAB0060F3AB006038
:1020E000FBAB006003AC00600BAC006013AC0060A5
:1020F0001BAC006023AC00602BAC006033AC006014
:102100003BAC006043AC00604BAC006053AC006083
:102110005BAC006063AC00606BAC006073AC0060F3
:102120007BAC006083AC00608BAC006093AC006063
:102130009BAC0060A3AC0060ABAC0060B3AC0060D3
:10214000BBAC0060C3AC0060CBAC0060D3AC006043
:10215000DBAC0060E3AC0060EBAC0060F3AC0060B3
:10216000FBAC006003AD00600BAD006013AD006020
:102170001BAD006023AD00602BAD006033AD00608F
:102180003BAD006043AD00604BAD006053AD0060FF
:102190005BAD006063AD00606BAD006073AD00606F
:1021A0007BAD006083AD00608BAD006093AD0060DF
:1021B0009BAD0060A3AD0060ABAD0060B3AD00604F
:1021C000BBAD0060C3AD0060CBAD0060D3AD0060BF
:1021D000DBAD0060E3AD0060EBAD0060F3AD00602F
:1021E000FBAD006003AE00600BAE006013AE00609C
:1021F0001BAE006023AE00602BAE006033AE00600B
:102200003BAE0060DD39006043AE00604BAE006065
:1022100053AE00605BAE006063AE00606BAE00600A
:1022200073AE00607BAE006083AE00608BAE00607A
:1022300093AE00609BAE0060A3AE0060ABAE0060EA
:10224000B3AE0060BBAE0060C3AE0060CBAE00605A
:10225000D3AE0060DBAE0060E3AE0060EBAE0060CA
:10226000F3AE0060FBAE006003AF00600BAF006038
:1022700013AF00601BAF006023AF00602BAF0060A6
:1022800033AF00603BAF006043AF00604BAF006016
:1022900053AF00605BAF006063AF00606BAF006086
:1022A00073AF00607BAF006083AF00608BAF0060F6
:1022B00093AF00609BAF006014CC00600000002072
:1022C000CC01000014CC0060000000000000000001
:1022D00014CC0060000020200000000014CC00603E
:1022E0000000E08100000000000800208C97000042
:1022F000000000000000000000002020000000009E
:102300000000E0810000000072B6104B83F30888E3
:1023100004F0B8FB0E4B07E003F10C049A6859680F
:10232000186800F01BF823460A4A9342F4D306E0EB
:102330001C46596854F8080B00F01FF82346064A5B
:102340009342F5D362B609F0B1FCFEE7000002202B
:10235000B8220060E8220060082300600023934256
:102360000AD210B450F8044B41F8044B04339342A2
:10237000F8D35DF8044B70477047002303E0002258
:1023800040F8042B04338B42F9D37047FEE7FEE795
:10239000FEE7FEE7FEE7FEE7FEE7FEE7FEE7FEE715
:1023A000074B19680868B0E8F04F80F30988BFF35D
:1023B0006F8F4FF0000080F311887047AFF30080FB
:1023C000489D002000BF00BFFFFFFFFFFFFFFFFF92
:1023D000EFF30980BFF36F8F154B1A681EF0100FD3
:1023E00008BF20ED108A20E9F04F10602DE90900A8
:1023F0004FF0200080F31188BFF34F8FBFF36F8F32
:1024000002F0DAFF4FF0000080F3118809BC196870
:102410000868B0E8F04F1EF0100F08BFB0EC108A4B
:1024200080F30988BFF36F8F704700BFAFF3008060
:10243000489D002000BF00BF10B50C460028FDD00D
:1024400054B1094B1B684BB122460146074809F0BD
:1024500082FB28B9204610BD0020FCE70020FAE7E7
:102460004FF0FF30F7E700BFC80E0020C00E00207D
:1024700010B588B00093019100238DF808308DF8D5
:10248000093001218DF80A108DF80B108DF80C30F1
:102490008DF80D308DF80E008DF8182048F6417338
:1024A000ADF81A308A4203D043F2215008B010BD73
:1024B000CDF81CD0104C20220021204609F000FC51
:1024C000201D206004A909F0FBFA0028FDD10B4B68
:1024D0001B780B4951F8180C09F00BFB0028FDD1B3
:1024E000084951F81C0C09F01AFB0028FDD1024BD9
:1024F0001A68054B1A60D9E7A80E0020889F0020B3
:10250000C00E0020C40E0020C80E00200FB400B57D
:10251000A3B0002101917C2202A809F0D1FB0A4B53
:102520001B687BB125A92191084B01AA249805F0CD
:10253000A2FC014601A8FFF77FFF23B05DF804EB82
:1025400004B070470020F8E7C80E0020AD7C0060A2
:1025500000B587B08446204B93E807000DF1180EB4
:102560000EE90700EE468EE80700BCF1010F2ED9F8
:10257000ACF10202D2B2012A0AD9ACF10602D2B2FF
:10258000012A05D9ACF10A02D2B2012A00D9624669
:1025900000210B4600E00133022B0ED806A800EB09
:1025A000830050F80C0C0028F5D00DF1180C0CEB42
:1025B000810C4CF8180C0131EDE78A4209D806ABC2
:1025C00003EB820252F8180C07B05DF804FB002000
:1025D000FAE70020F8E700BF98C2006038B504466B
:1025E0001546FFF7B5FF002838D00346A11E01EBC2
:1025F000410149011B4A0A444FF4C011C2F8B41109
:10260000026B42F480420263026B42F400420263B6
:1026100000220260A4F10A02D2B2062C18BF012ADD
:1026200001D9072C05D14FF400225A634FF48012D0
:102630005A63ADB11A690C4911402A7802F00F02B1
:102640006878000400F470200243A878000200F4C7
:10265000706002430A431A61002038BD0120FCE784
:102660000020FAE700800D40F0F0F0FF2DE9F04F78
:1026700087B01D464E0006F01E06CB09039346EABE
:10268000D11601F00F0AC90801F010014AEA010150
:1026900001278F4043F6FF732B44002800F0088188
:1026A00090464FEA933B04468268B101029102EBE7
:1026B000861292F8382012F0010F00F0FC8090F89A
:1026C0005690B9F1000F40F0FC80B3F5804F01D275
:1026D0004FF0010B05A809F056FA94F854305B4509
:1026E00002D3CB46002121E0059809F05FFA4FF0B4
:1026F0000209E2E02A461EE0586840F400405860B3
:1027000058684FF0800C6CF307005860114406F1D4
:102710000C0004EB80004068002848D0036006F1FC
:102720000C0004EB80004360002D4CD0B5F5804FC9
:10273000E0D94FF48042AD1A23691868206194F8FB
:102740005400013884F8540001B901930120186045
:102750004FF0000CC3F804C008EB010098609868C3
:1027600000F5805E58480EEA0000D860D86800F591
:1027700080501861186900F580505861586900F55B
:1027800080509861586862F31E405860D86962F3BF
:102790001E30D861D3F808E0988B6EF30B00988355
:1027A000D87F6CF3C710D877002DA9D1A4E7301DCE
:1027B00004EB8000436006F10C0004EB80004360F2
:1027C0004FF0010BB0E7BAF1000F01D1039BF3B951
:1027D000BBF1000F3ED16368D3F8B0313B4234D136
:1027E0006268D2F8403143F48053C2F840316368E4
:1027F000D3F8B821D3F8403113F4805FF0D061688A
:10280000D1F8403123F48053C1F8403123E0A3686C
:1028100003EBCA1A029E991991F8381011F0020FB1
:10282000D6D0002AD4D0BAF836109142D0D99959CE
:10283000C1F30A41B2FBF1F001FB1022002AC7D11B
:102840009A596FF35D729A51C2E7059809F0AEF993
:10285000D94632E03A46BBF1000F01D13A4223D1CA
:10286000A368029A134401999960A3681344002253
:10287000DA60BFF34F8F6368C3F8B0716368D3F851
:10288000B8213A4210D10135104A954206D0D3F80A
:10289000BC213A4208D1C3F8B071EFE7059809F0BE
:1028A00085F94FF0010908E0059809F07FF904E087
:1028B0004FF0030901E04FF00109484607B0BDE8B9
:1028C000F08F4FF00109F8E700F0FFFF80969800C5
:1028D00000230BB1002070471946084AD25C12B1A0
:1028E0000133DBB2F5E7054A4FF0010C02F803C0F3
:1028F00003705C23024803FB01007047280F00208F
:10290000CC0E0020F0B585B005460F46294B93E864
:10291000030004AB03E90300AB1EDBB2012B44D878
:1029200016460DF10700FFF7D3FF044600283FD0FD
:102930009DF80710204A02EB4122C2601F4B03EBB7
:10294000C123836080F85750023D04AB03EB85053B
:1029500055F8083C4360D3F8402142F00202C3F826
:1029600040216368D3F8400110F0020FF9D1D3F889
:10297000242102F01F0284F85520032A01D80120E7
:1029800014E02760D3F8A82122F00302C3F8A8219D
:102990006268D2F8A83143F00203C2F8A831204699
:1029A00005F034FB3460002000E0062005B0F0BDE7
:1029B0000320FBE7A4C20060000C002000080020F8
:1029C000024608B3002393B153680020C3F84801BE
:1029D0005168D1F8403123F00103C1F84031526809
:1029E000D2F8403143F00203C2F8403170475C2016
:1029F000064900FB0311914202D00133DBB2E2E74A
:102A000003490020C854F8E703207047CC0E00208B
:102A1000280F0020F0B58BB00023099308938DF8A0
:102A20001F304B68B3F1FF3F00F0088107460C46AA
:102A30001646002A00F0048195680DF11F02062158
:102A400006F01EFD237A002B00F0AC806368082B93
:102A500040F0F8802368002B00F0F6805A886A80E6
:102A60009A88AA80D988E9805A786A701B782B7076
:102A700013F01C0F11D113F0600018D10C2A7DD86F
:102A8000754B53F82240002C00F0888008AB09AA4F
:102A900029463046A047024671E000230193009387
:102AA00005222946384606F0EBFA052074E0002995
:102AB00039D013F0800F36D1202803D0402814D00D
:102AC00005225CE00023049301218DF81810039582
:102AD000EB88059303AA384600F09CFE059B0893FB
:102AE000049B099398B1052249E000230493012334
:102AF0008DF818300395EB88059303AA1321384607
:102B000007F0ADFF059B0893049B0993EAE7EB8868
:102B1000089A934200D20893089B099A00213846EC
:102B200006F02EFC38E0202803D0402813D00522E0
:102B300025E00023049301218DF818100395EB88FC
:102B4000059303AA384600F065FE0246059B0893EC
:102B5000049B099313E00023049301238DF818309C
:102B60000395EB88059303AA1321384607F077FFF6
:102B70000246059B0893049B099300E00522089BED
:102B80000BB1099B63B108AB019309AB0093002320
:102B90002946384606F074FA0BB0F0BD0522EEE780
:102BA0000522F0E79DF81F30032B1BD06368002B34
:102BB0004CD0EB88002B4BD02B7895F90020002AC5
:102BC00048DB03F06003202B1AD0402B27D00522CE
:102BD00008AB019309AB009301232946384606F060
:102BE0004FFAD9E76B78052B01D00520D4E71A4AB4
:102BF00052F8234008AB09AA29463046A047CBE744
:102C00002368049300238DF81830039563680593B7
:102C100003AA0121384600F0FDFD0246D8E72368EB
:102C2000049300238DF8183003956368059303AA75
:102C30001321384607F013FF0246C9E70520ABE72A
:102C40000520A9E70520A7E70520A5E70520A3E7BC
:102C50000520A1E705209FE7ACC2006030B587B032
:102C60000446154B0193029101238DF81430002383
:102C70008DF813308DF8153080238DF812304023F5
:102C8000ADF8103001AA04A906F08CFB054610B17E
:102C9000284607B030BD00238DF8123001AA04A9E0
:102CA000204606F07FFB05460028F1D08021204613
:102CB00006F0A0FBECE700BF152A006070B582B0FB
:102CC00006460D4601A808F05EFF00233BB1002335
:102CD000DBB1019808F06AFF022002B070BDC3EBBF
:102CE0000312154C04EBC20292683AB1C3EB031213
:102CF00004EBC20292F87520B24201D00133E5E73D
:102D0000019808F053FF0120E7E7C3EB03120A49DB
:102D100001EBC20292680AB10133D9E70A46C3EB5C
:102D2000031102EBC10181F875602960019808F078
:102D30003DFF0020D1E700BF000E00200238C0B2E6
:102D4000012803D8024B0B60002070470620704713
:102D5000E0C2006086B01B4B05931B4B04931B4BDA
:102D600003931B4B02931B4B01931B4B00930023BC
:102D700013B1022006B07047982203FB02F21749F4
:102D80008A580AB10133F3E706AA02EB8301134A1A
:102D90004FF0980C0CFB032351F8042C9A6151F866
:102DA000082CDA6151F80C2C1A6251F8102CDA63F5
:102DB00051F8142C1A6451F8182C1A65036000207D
:102DC000D8E700BF2C0F00204C0F00205C0F002024
:102DD000700F0020780F0020840F0020A80F002023
:102DE00070B584B00D4614464B68B3F1FF3F11D067
:102DF000D268934201D8D31AE36094F88B60012E15
:102E000038D094F88530002B44D16A680D2A3FD021
:102E1000002240E092F88530B3B153681B689BB143
:102E20009269D37BA82B18BF282B0DD100230193C7
:102E3000096802910093537B8DF80C3063681B681E
:102E40006A4601212046984794F89630012B01D01C
:102E5000012662E0002584F896500D23E26994F87B
:102E60009110206806F084FA012384F88E3084F8EB
:102E70008F50EDE7002384F88B30012284F8862000
:102E800084F8853094F89110206806F0D5FA44E073
:102E90002A6800E00022002B3BD063681B68002BEF
:102EA00054D06B6801932B68029323690093A36944
:102EB0005A7B8DF80C20DB7BA82B18BF282B05D163
:102EC00063681B686A46012120469847E3687BB91E
:102ED0000126E3680BBB84F88530012384F88E302B
:102EE0000D23E26994F89110206806F041FA14E08D
:102EF0006A68A3695B7B053304EB03139B68B2FB31
:102F0000F3F2236913442361204606F0F2FD0646DE
:102F1000DFE76B680D2B03D00126304604B070BD8F
:102F200012680B4B9A4201D00126F6E7012684F87D
:102F30008860002384F88E301F23A26994F89210D1
:102F4000206806F01DFA84F88D60E6E70126E4E7C4
:102F50005553425370B584B00E4614464B68B3F1D6
:102F6000FF3F44D0D268934201D8D31AE360A369EB
:102F7000DB7B152B18BF552B06D163681B681BB173
:102F800000220B212046984794F88C30012B5BD00F
:102F900094F88450002D79D07368019333680293BC
:102FA00023690093A3695A7B8DF80C206268156829
:102FB000002D69D0DB7BAA2B18BF2A2B03D16A46D0
:102FC00002212046A847E368002B4CD10025E36886
:102FD000002B79D184F884300D23E26994F89110A4
:102FE000206806F0C5F9012384F88E306CE092F871
:102FF0008430B3B153681B689BB19269D37BAA2B11
:1030000018BF2A2B0DD10023019309680291009368
:10301000537B8DF80C3063681B686A46022120469A
:10302000984794F88D3013B9B4F886300BB1002569
:103030004AE01F23A26994F89210206806F0A0F9D4
:10304000012384F88D30F2E7002584F88C5084F851
:10305000873084F8845084F88D5094F8921020685A
:1030600006F0EAF930E07268A3695B7B053304EB94
:1030700003139B68B2FBF3F22369134423612046D8
:1030800006F079FD0546A2E70025A0E794F8883010
:1030900013B173681F2B1AD094F89210206806F0B1
:1030A000CBF994F89110206806F0C6F9002384F853
:1030B0008D3084F88830012384F8873084F8863096
:1030C00084F88F3084F88930284604B070BDA36935
:1030D0001968404A9142DFD15A7B12F0F00FDBD1E0
:1030E0009B7B13F0E000D7D194F8901001318A4215
:1030F000D2D2013BDBB20F2BCED8002384F88D3027
:10310000E360E26934491160E2699360A169E269B0
:103110004968516084F88830A3699A6893F90C1063
:10312000002902DB62BB024600E0024684F88420EC
:1031300093F90C20002A25DB84F8850018B194F857
:103140008630002B43D1204606F019FA05460528A3
:103150001DD094F88430002BB6D194F88530002B24
:10316000B2D194F88B30002BAED10D23E26994F8E4
:103170009110206806F0FCF8012384F88E30A3E754
:103180000122D3E79B68002BD6D00120D4E794F826
:103190008430012B07D094F88530012B0DD0022309
:1031A00084F88F30D5E794F8873013B9012384F879
:1031B0008C30002384F88430F1E794F8863013B91A
:1031C000012384F88B30002384F88530E7E7054637
:1031D0007AE700BF555342435553425390F8943019
:1031E000002B7ED070B586B0044642689268517953
:1031F0008B4278D81068002877D06FF060421A446C
:1032000000EBC200002302789A421ED9426803EB09
:10321000430102EB810512F82120082A01D0013375
:10322000F1E700232A7A9A420AD969681A0101EB68
:103230000316895C94F89320914202D00133F1E7A0
:103240000026EB7884F8953000E00026002E4ED062
:10325000A660002501200AE084F89120254B039305
:10326000049403AA01A9206806F09CF8013533797B
:10327000AB421BD900238DF80830B26805EB45013D
:1032800002EB410318798DF8090012F811208DF82E
:1032900006205988ADF804105B788DF80730D30903
:1032A000DAD184F89220144B0393D9E7002384F8F1
:1032B000843084F8853084F8873084F8863084F848
:1032C0008C3084F88B30012284F88820E36084F805
:1032D000893084F88A3084F88F3084F8963006B0CC
:1032E00070BD012070470120F9E70120F7E70120B8
:1032F000F5E700BFE12D0060552F006070B588B084
:1033000004465A4B1B68009383695D7B8DF81C5003
:1033100000230693059343681B6813B105AA112186
:10332000984794F89030AB4203D2236A05229A70F2
:103330000025069A32B1059921B16B1D04EB0313E8
:1033400059609A60A3699A7DD97D41EA022194F877
:103350004C5025B16269002A40D0022000E0284686
:103360005A7B053204EB02125668330203F47F03E2
:1033700043EA06634FEA162C0CF47F4C43EA0C0335
:1033800043EA166301939668320202F47F0242EA2E
:1033900006624FEA162C0CF47F4C42EA0C0242EA19
:1033A00016620292E5B10225C2008DF80320039354
:1033B00046EA0565330203F47F0343EA06632E0AF7
:1033C00006F47F46334343EA156304930C320D46FB
:1033D000914200D31546002213460DE00320BFE7BB
:1033E0000125E1E7511C08AE324412F8202C266D6D
:1033F000F2540133DBB2CAB2032BF3D900220BE043
:10340000216D08AE06EB020C1CF814CC01F803C0C9
:103410000133DBB20132D2B2072AF1D994F84C2041
:1034200002BBA562012384F83A30236DE3620023D6
:1034300084F83830204606F0F5FB08B070BD511C0A
:1034400008AE324412F81C2C266DF2540133DBB264
:10345000CAB2072BF3D90CF1010C5FFA8CFC84453E
:10346000F7D3DEE700229446F9E700BFF8C2006018
:1034700000230BB10220704703EB830212010649BF
:103480008A580AB10133F4E703EB830301EB03131A
:1034900003600020704700BF40100020002800F0AB
:1034A000E080F0B587B0044690F84C30002B00F077
:1034B000DB804268926851798B4200F2D9801768AC
:1034C0006FF060421A4407EBC20700233A789A4231
:1034D0001ED97A6803EB430102EB810012F8212028
:1034E000022A01D00133F1E70023027A9A420AD975
:1034F00041681A0101EB0316895C94F84E20914251
:1035000002D00133F1E70026C37884F84D3000E0A3
:103510000026002E00F0AE80A660002501230AE000
:10352000049403AA01A9206805F03CFF0346002883
:1035300040F09B8001353279AA4228D900238DF8CA
:103540000830B26805EB450102EB410318798DF8AC
:10355000090012F811208DF806205988ADF80410E2
:103560005B788DF80730D109DAD0032BD8D102F07F
:103570000F0284F84920002384F84A306FF00102DA
:10358000226484F8483063643B4B0393C8E700220D
:10359000397891421AD9796802EB420001EB800533
:1035A00011F820100A2901D00132F1E70022297A0E
:1035B00091420BD96868110100EB0217405C94F846
:1035C0004E10884201D00132F1E73E46E660002508
:1035D00018E0022A30D103F00F0384F821300023D1
:1035E00084F822306FF00102A26184F82030E36198
:1035F000224B0393049403AA01A9206805F0D2FE8C
:10360000034601353279AA422FD900238DF80830BC
:10361000B36805EB450103EB410210798DF8090011
:1036200013F811308DF806305188ADF80410527837
:103630008DF80720D909CCD113F0800FDAD1022AF6
:10364000D8D103F00F0384F83530002384F83630E6
:103650006FF00102E26284F834302363084B039375
:10366000C8E70123184670470123184607B0F0BD8C
:103670000123FAE70123F8E7EBA3006013A400603D
:103680003BA4006030B583B004460D4601A808F0A5
:103690007AFA00233BB10023ABB1019808F086FA17
:1036A000022003B030BD1A0110498A5822B101EB43
:1036B0000312927BA24201D00133EBE7019808F09C
:1036C00075FA0120EDE71A0108498A580AB1013359
:1036D000E2E701EB03129473054901EBC303936026
:1036E0002A60019808F062FA0020DAE790100020C2
:1036F000A010002010B582B0044601A808F043FADB
:1037000000232BB1019808F051FA042002B010BD3B
:103710001A010B498A5822B101EB0312927BA24293
:1037200001D00133EDE70A46190102EB031300242F
:1037300054505C609C73019808F038FA2046E5E725
:103740009010002030B583B005460C4601A808F063
:103750001AFA00232BB1019808F028FA042003B0CC
:1037600030BD1A0108498A5822B101EB0312927B3D
:10377000AA4201D00133EDE701EB03132360019866
:1037800008F014FA0020EAE79010002030B583B06A
:1037900004460D4601A808F0F6F900232BB1019864
:1037A00008F004FA042003B030BD1A0106498A5813
:1037B000A24201D00133F1E701EB03132B60019822
:1037C00008F0F4F90020EEE79010002030B583B047
:1037D00005460C4601A808F0D6F900232BB1019844
:1037E00008F0E4F9042003B030BD1A0108498958F3
:1037F00029B1074A02EB0312927BAA4201D001339E
:10380000ECE72160019808F0D1F90020EBE700BF58
:10381000901000202DE9F04182B0002A33D00E46EE
:10382000904601A9FFF7B2FF054688BB0446012771
:103830000DE0194B03EB0C1CDCF808304246314616
:1038400040689847052825D0D8B10134E4B2019BDF
:1038500059680B7AA34217D92B46012BF5D89C4601
:103860000D4A02EB031292F80CE00A6804EB4400E4
:1038700002EB8000826812799645DAD00133DBB220
:10388000EBE70746E1E70427384602B0BDE8F081E0
:103890000427F9E70746F7E7FCC200602DE9F0418D
:1038A00082B0002918BF002A47D0064690460C4631
:1038B0004B68002B43D001A9FFF7E4FE074618B17F
:1038C000384602B0BDE8F081019A54601D49304687
:1038D00005F0D8FC074608B9054623E0019B1868A7
:1038E00005F035FD3046FFF705FFE9E70134E4B2A6
:1038F000022C15D8019B5B68196805EB450301EBA9
:1039000083018B681A79104B03EB04131B7B9A42DB
:10391000ECD123010C4AD3580A1D30469847E5E7FD
:103920000135EDB2019B5A68127AAA4201D93C4690
:10393000DEE71B68C8F80030C2E70427C0E70427A9
:10394000BEE700BF5FAA0060FCC2006080B483B025
:1039500000AF0346FB80B7F90630002B0BDBFB887A
:1039600003F01F020749B7F906305B09012000FA8E
:1039700002F241F8232000BF0C37BD465DF8047BFE
:10398000704700BF00E100E080B483B000AF0346A1
:103990003960FB80B7F90630002B0ADB3B68DAB2EE
:1039A0000C49B7F906301201D2B20B4483F8002358
:1039B0000AE03B68DAB20849FB8803F00F03043BD6
:1039C0001201D2B20B441A7600BF0C37BD465DF827
:1039D000047B704700E100E000ED00E008B5034B18
:1039E000186805F09AF8BFF34F8F08BD780E0020D5
:1039F00010B582B00B4B1B68ADF804301B0C8DF872
:103A00000630094C2146002002F0A2FB214600208E
:103A100002F074FB01AA00210220FEF7DFFD02B0D4
:103A200010BD00BF2CC3006000389C1C70B505465B
:103A30001446013915297FD8DFE801F01F7E7E7E0C
:103A40007E7E7E7E27486C72787E7E7E7E7E7E7E47
:103A5000575D424A1A44002151730133DBB2022BF5
:103A6000F7D93E4900234B740B731031022007F045
:103A700014F8064618B100265FE00023EFE7374B45
:103A8000197C284600F008F957E016781EB1012E7F
:103A90000ED0052651E0314D00236B742B73117845
:103AA000686800F027FB2178A86807F014FB44E061
:103AB0002A4D01236B7411782973686800F01AFB92
:103AC0002178A86807F007FB002636E0234B5B7CD3
:103AD000ABB31388180AD9B2B3F5407F01D30526DA
:103AE0002BE000F03DF8064627E052B31B4B1B7B52
:103AF0001370002621E032B31388190AB3F5407F12
:103B000023D203F47F43154A0A44527B1343238094
:103B1000002612E0DAB1114600F074F806460CE017
:103B2000BAB1114600F076F8064606E09AB11146A1
:103B300000F07CF8064600E00526304670BD0526FC
:103B4000FBE70526F9E70526F7E70526F5E705264D
:103B5000F3E70526F1E70526EFE700BF780E002022
:103B600038B504460D4601280ED0022811D008B100
:103B7000012038BD094B586807F0A9FA0028F8D190
:103B8000064B1C446573F4E7044B586807F0A1FA30
:103B9000F4E7024B986807F0A0FAEFE7780E0020F0
:103BA00070B5FFF725FF144A002313745374536054
:103BB0009360136011490220FFF770FE054608B1BB
:103BC000284670BD0D4E33685B680B4C6360204621
:103BD00000F0A2FA3368DB69A360204607F07FFAA1
:103BE00007F0E9F9064941F2883002F0F9FC206853
:103BF00005F0A7FBE4E700BF780E00202C000020B2
:103C00000046C323024B0B6012234B600020704719
:103C1000CC000020087A08B105207047024B0B60E9
:103C200062234B60704700BFE0000020887AB8B97B
:103C3000184B1A680A605B684B607047B1F808C09F
:103C4000144A926803EB430E02EB8E0212899445EC
:103C500002D00133DBB205E0022806D9052016E0C8
:103C600010B50023002BE9D00320032810D0094A07
:103C7000946803EB43039B00E45854F820400C6025
:103C8000926813445B6853F820304B60002010BDED
:103C90000520FCE78001002070B582B00E460025AB
:103CA000ADF804508DF806501B4C03E0E57807E0B2
:103CB00023781C44194B9C4213D26378042BF5D013
:103CC000052BF5D1A2782946304607F088F90190F6
:103CD0009DF80630A371BDF804301A0A6271237191
:103CE000E6E7022E0CD00E4B10225A800D4A4023DC
:103CF000538013810C4A53801381002002B070BDA1
:103D0000074B10225A80074A4FF4007353801381E7
:103D1000054A53801381F0E7E000002041010020B4
:103D200038000020500000206C0000201F2904D81B
:103D30000068C84000F00100704708B5014803F072
:103D4000BFFD00BF30C3006000B583B003F07CF856
:103D500003F06EFD03F02EFA07F032FF1948FEF76C
:103D6000D5FB07F079FF1848FEF7D0FB174C01226E
:103D70000321204602F050FC636843F008036360AF
:103D80000023019304220092BE221149114807F03A
:103D90001CFD012803D01048FEF7B8FBFEE7002306
:103DA000019304220092BE220C490D4807F00DFD3C
:103DB000012803D00848FEF7A9FBFEE701F046F909
:103DC000FEE700BFA8C30060C8C3006000C01B407E
:103DD000E4C30060E53D0060F0C300600CC4006017
:103DE0009BB0006010B50C48FEF790FB0B4A1368BF
:103DF0000133136000BF642001F0F4F8084C032184
:103E00002046FFF793FF80F00102D2B20321204643
:103E100002F002FCEAE700BF18C40060A81000200E
:103E200000C01B4008B51A4B1B685B7CDBB2012B42
:103E300000D008BD174B1B79DBB2012BF9D1164B13
:103E40001B68B3B1144B1B68B3F1FF3F11D00023C3
:103E500008E012490A68501C08601149C85C114901
:103E6000885401330C4A12689342F2D30A4B002261
:103E70001A600A4B1B68002BDBD0084A136800212C
:103E80001160084A02210348006806F09DFDD0E752
:103E9000D0140020D4140020C8140020CC1400201A
:103EA000C8100020C812002010B5044601390A29A4
:103EB00000F20981DFE811F00B0037005400070120
:103EC000070159007A00070191009900A600516886
:103ED00031B17E4B5888B1FBF0F300FB13133BB1BB
:103EE0007B4B1B685B7CDBB2012B07D00520EBE032
:103EF0001A460221204606F067FDE5E0754B1B7966
:103F0000DBB2012B01D00520DEE013683BB16F4B23
:103F10001B89714A0121204606F083FDD4E0002967
:103F2000F5D00520D0E06A4B1B685B7CDBB2012B2F
:103F300001D00520C8E0674B1B79DBB2012B01D013
:103F40000520C1E05268654B1A601B680BB1052063
:103F5000BAE05E4B1B89604A012106F062FDB3E0C6
:103F6000002380F84F301846AEE05389012B03D070
:103F7000022B0ED00020A7E0137B012B01D00020E4
:103F8000A2E0136856491960536802221A600020A3
:103F90009AE0137B012B01D0002095E01368514972
:103FA0001960536802221A6000208DE05389012BAA
:103FB00003D0022B09D0002086E01368484919601D
:103FC000536802221A6000207EE013684549196098
:103FD000536802221A60002076E013684249196093
:103FE000536807221A6000206EE0137B012B01D07A
:103FF000002069E013683C491960536807221A6081
:10400000002061E0937A39498B7313F0020F30D0AE
:104010000846098A41F00201018213F001012ED005
:104020003248038A43F001030382304B9972A12185
:1040300019702021597000219970D9701971597126
:1040400002209871D97112891A711A8A1A72120A89
:104050005A7294F84F30C3B1244B987B10F0010092
:1040600027D01B4B1B685B7CDBB2012B1CD00020D4
:104070002AE01E48018A21F002010182CDE71B4897
:10408000038A23F001030382CFE70A23174A0121A1
:10409000204606F099FC18B9012384F84F30DBE77D
:1040A0001348FEF733FAF7E70A4B01221A71002092
:1040B0000AE0074B1B685B7CDBB2012B04D1054B8C
:1040C00000221A7100E0052010BD00BF5000002042
:1040D000D0140020D4140020C8100020C8140020E0
:1040E000AC100020B010002090010020B41000207F
:1040F00028C4006008B5054B1B89054A0121054805
:10410000006806F08EFC002008BD00BF50000020B3
:10411000C8100020D4140020034B18604268034BE1
:104120001A600020704700BFD0140020D414002073
:104130000139102943D8DFE801F009090B131B42AC
:1041400009282E420942424242343B000020704777
:1041500011681C4B1B6803EB4123936000207047E0
:104160001168184B1B6803EB4123936000207047D4
:10417000012313604FF400739360302353604FF4B6
:10418000C043D360136100207047242353600E4B5B
:10419000936000207047082353600C4B936000200D
:1041A00070474FF400735360302313600020704752
:1041B0004FF40073536030231360002070470520D4
:1041C000704700BFBC01002098010020DC140020D3
:1041D00080B58AB000AF78600023FB6100F088FFF3
:1041E000654B1B68002B01D100F034F9634B1A6852
:1041F0007B681340002B40F0A7807B68002B2DD0FC
:1042000008227B6813447A689A4227D208227B6886
:1042100013447B607B6803F00703002B21D07B688D
:1042200023F0070308337A689A4214D27B6823F09C
:10423000070308337B607B6803F00703002B10D073
:104240004FF0200383F31188BFF36F8FBFF34F8FBD
:104250007B6100BFFEE700237B6002E000237B6000
:1042600000E000BF7B68002B6ED0454B1B687A686E
:104270009A4269D8434B3B62424B1B687B6204E025
:104280007B6A3B627B6A1B687B627B6A5B687A68DD
:104290009A4203D97B6A1B68002BF1D1364B1B680D
:1042A0007A6A9A4250D03B6A1B6808221344FB6129
:1042B0007B6A1A683B6A1A607B6A5A687B68D21A02
:1042C00008235B009A421FD97A6A7B681344BB615A
:1042D000BB6903F00703002B0AD04FF0200383F3E0
:1042E0001188BFF36F8FBFF34F8F3B6100BFFEE7B5
:1042F0007B6A5A687B68D21ABB695A607B6A7A68A3
:104300005A60B86900F008F91D4B1A687B6A5B684F
:10431000D31A1B4A13601A4B1A681B4B1B689A422C
:1043200003D2174B1B68184A13607B6A5A68134BF9
:104330001B681A437B6A5A607B6A00221A60134B1F
:104340001B680133114A136000F0E0FEFB6903F0C3
:104350000703002B0AD04FF0200383F31188BFF32B
:104360006F8FBFF34F8FFB6000BFFEE7FB691846FE
:104370002837BD4680BD00BFEC9C0020009D00207A
:10438000F09C0020E49C0020F49C0020F89C00207D
:1043900080B586B000AF78607B687B617B68002B5E
:1043A0004DD008235B427A6913447B617B693B6192
:1043B0003B695A68244B1B681340002B0AD14FF00D
:1043C000200383F31188BFF36F8FBFF34F8FFB6020
:1043D00000BFFEE73B691B68002B0AD04FF02003AB
:1043E00083F31188BFF36F8FBFF34F8FBB6000BFA4
:1043F000FEE73B695A68144B1B681340002B1ED024
:104400003B691B68002B1AD13B695A680E4B1B682D
:10441000DB431A403B695A6000F06AFE3B695A6808
:104420000A4B1B681344094A1360386900F074F89A
:10443000074B1B680133064A136000F067FE00BF9C
:104440001837BD4680BD00BF009D0020F09C0020B5
:10445000FC9C002080B485B000AF4FF42053BB60BB
:10446000274BFB60FB6803F00703002B0CD0FB68B5
:104470000733FB60FB6823F00703FB60BA68FB6847
:10448000D31A1F4A1344BB60FB687B601D4A7B68DC
:1044900013601C4B00225A607B68BA681344FB60AF
:1044A0000822FB689B1AFB60FB6823F00703FB6094
:1044B000FB68154A1360144B1B6800225A60124BAC
:1044C0001B6800221A607B683B603B68FA68D21A5E
:1044D0003B685A600C4B1A683B681A603B685B6823
:1044E0000A4A13603B685B68094A1360094B4FF046
:1044F00000421A6000BF1437BD465DF8047B704768
:10450000E4740020E49C0020EC9C0020F49C00203B
:10451000F09C0020009D002080B485B000AF786042
:10452000284BFB6002E0FB681B68FB60FB681B68B4
:104530007A689A42F7D8FB68BB60FB685B68BA6828
:1045400013447A689A4208D1FB685A687B685B68B2
:104550001A44FB685A60FB687B607B68BB607B68C1
:104560005B68BA681A44FB681B689A4218D1FB68FA
:104570001A68154B1B689A420DD07B685A68FB6815
:104580001B685B681A447B685A60FB681B681A6882
:104590007B681A6008E00C4B1A687B681A6003E0BD
:1045A000FB681A687B681A60FA687B689A4202D0D6
:1045B000FB687A681A6000BF1437BD465DF8047B5B
:1045C000704700BFE49C0020EC9C002080B485B0C4
:1045D00000AFF860B9607A60FB68043BFB60FB6881
:1045E0004FF080721A60FB68043BFB60BB6823F0ED
:1045F0000102FB681A60FB68043BFB600C4AFB6825
:104600001A60FB68143BFB607A68FB681A60FB6801
:10461000043BFB60FB686FF002021A60FB68203B02
:10462000FB60FB6818461437BD465DF8047B704795
:104630003546006080B485B000AF00237B60124B2C
:104640001B68B3F1FF3F0AD04FF0200383F31188BA
:10465000BFF36F8FBFF34F8FFB6000BFFEE74FF0DC
:10466000200383F31188BFF36F8FBFF34F8FBB60BD
:1046700000BF00BF7B68002BFCD000BF00BF143719
:10468000BD465DF8047B7047C00100200848006803
:10469000006880F308884FF0000080F3148862B649
:1046A00061B6BFF34F8FBFF36F8F00DF00BF000015
:1046B00008ED00E000BF00BF80B586B000AF464BFC
:1046C0001B68464A93420AD14FF0200383F31188B6
:1046D000BFF36F8FBFF34F8F3B6100BFFEE73E4BD1
:1046E0001B683F4A93420AD14FF0200383F311889D
:1046F000BFF36F8FBFF34F8FFB6000BFFEE7394BF7
:104700007B617B691B78DBB27B607B69FF221A705F
:104710007B691B78DBB2FB70FB78DBB203F0200314
:10472000DAB2314B1A70314B07221A6009E02F4B75
:104730001B68013B2D4A1360FB78DBB25B00DBB2E8
:10474000FB70FB78DBB203F08003802BEFD0274BAC
:104750001B68C3F10703042B0AD04FF0200383F337
:104760001188BFF36F8FBFF34F8FBB6000BFFEE7B1
:104770001E4B1B681B021D4A13601C4B1B6803F475
:10478000E0631A4A13607B68DAB27B691A70184BCF
:104790001B68174A43F470031360154B1B68144AD7
:1047A00043F07043136000F0A5F8124B00221A602A
:1047B00000F0C4F8104B1B680F4A43F040431360ED
:1047C000FFF764FF00F0F8FDFFF734FF0023184601
:1047D0001837BD4680BD00BF00ED00E071C20F413B
:1047E00070C20F4100E400E0899F0020049D00207A
:1047F00020ED00E0C001002034EF00E080B483B081
:1048000000AF4FF0200383F31188BFF36F8FBFF326
:104810004F8F7B6000BF0F4B1B6801330D4A136045
:104820000C4B1B68012B0FD10B4B1B68DBB2002B11
:104830000AD04FF0200383F31188BFF36F8FBFF3CB
:104840004F8F3B6000BFFEE700BF0C37BD465DF8F1
:10485000047B7047C001002004ED00E080B483B009
:1048600000AF124B1B68002B0AD14FF0200383F3DB
:104870001188BFF36F8FBFF34F8F7B6000BFFEE7E0
:104880000A4B1B68013B094A1360084B1B68002B4D
:1048900005D100233B603B6883F3118800BF00BF54
:1048A0000C37BD465DF8047B704700BFC001002097
:1048B00080B582B000AF4FF0200383F31188BFF3BF
:1048C0006F8FBFF34F8F7B6000BF00F0CBFC0346C0
:1048D000002B03D0064B4FF080521A6000233B6040
:1048E0003B6883F3118800BF00BF0837BD4680BD19
:1048F00004ED00E080B400AF0B4B00221A600B4BBC
:1049000000221A600A4B1B680A4AA2FB03239B0978
:10491000094A013B1360044B07221A6000BFBD46E1
:104920005DF8047B704700BF10E000E018E000E095
:10493000C80100201F85EB5114E000E0DFF80C00F7
:10494000016841F4700101607047000088ED00E0EB
:1049500000BF00BF80B485B000AFEFF30583FB60FC
:10496000FB680F2B14D9174AFB6813441B78FB72A2
:10497000154B1B78FA7A9A420AD24FF0200383F340
:104980001188BFF36F8FBFF34F8F7B6000BFFEE7CF
:104990000E4B1B6803F4E0620D4B1B689A420AD968
:1049A0004FF0200383F31188BFF36F8FBFF34F8F56
:1049B0003B6000BFFEE700BF1437BD465DF8047BD7
:1049C000704700BFF0E300E0899F00200CED00E09D
:1049D000049D002080B584B000AF786039607B68AA
:1049E000FB60FB68002B0AD14FF0200383F3118892
:1049F000BFF36F8FBFF34F8FBB6000BFFEE7FFF7C2
:104A0000FDFEFB681A68FB68DB6BF968096C01FB4B
:104A100003F31A44FB689A60FB6800229A63FB6800
:104A20001A68FB685A60FB681A68FB68DB6B013B1D
:104A3000F968096C01FB03F31A44FB68DA60FB6850
:104A4000FF2283F84420FB68FF2283F845203B685F
:104A5000002B14D1FB681B69002B1AD0FB681033A4
:104A6000184600F055FD0346002B12D00C4B4FF0BA
:104A700080521A60BFF34F8FBFF36F8F09E0FB685E
:104A80001033184606F02DFBFB682433184606F059
:104A900028FBFFF7E3FE012318461037BD4680BD13
:104AA00004ED00E080B58EB000AFF860B9607A60C8
:104AB0003B6000237B63FB683B633B6B002B0AD1AD
:104AC0004FF0200383F31188BFF36F8FBFF34F8F35
:104AD000BB6200BFFEE7BB68002B03D13B6B1B6CC6
:104AE000002B01D1012300E00023002B0AD14FF05D
:104AF000200383F31188BFF36F8FBFF34F8F7B6267
:104B000000BFFEE73B68022B03D13B6BDB6B012B45
:104B100001D1012300E00023002B0AD14FF0200334
:104B200083F31188BFF36F8FBFF34F8F3B6200BFDA
:104B3000FEE700F079FE0346002B02D17B68002BD4
:104B400001D1012300E00023002B0AD14FF0200304
:104B500083F31188BFF36F8FBFF34F8FFB6100BFEB
:104B6000FEE7FFF74BFE3B6B9A6B3B6BDB6B9A42AE
:104B700002D33B68022B29D13A68B968386B06F03A
:104B8000E0FCF8623B6B5B6A002B10D03B6B24337C
:104B9000184600F0BDFC0346002B13D03F4B4FF0EE
:104BA00080521A60BFF34F8FBFF36F8F0AE0FB6A2A
:104BB000002B07D0394B4FF080521A60BFF34F8F54
:104BC000BFF36F8FFFF74AFE012363E07B68002B82
:104BD00003D1FFF743FE00235CE07B6B002B06D183
:104BE00007F11403184600F0F5FC01237B63FFF77F
:104BF00035FE00F07DFAFFF701FE3B6B93F8443081
:104C00005BB2B3F1FF3F03D13B6B002283F844203A
:104C10003B6B93F845305BB2B3F1FF3F03D13B6B85
:104C2000002283F84520FFF719FE3A1D07F114030F
:104C30001146184600F0E4FC0346002B24D1386BE3
:104C400006F077FD0346002B18D03B6B10337A68D3
:104C50001146184600F00CFC386B06F002FD00F01F
:104C600055FA0346002B7FF47CAF0C4B4FF080527B
:104C70001A60BFF34F8FBFF36F8F72E7386B06F088
:104C8000F0FC00F043FA6CE7386B06F0EAFC00F049
:104C90003DFA002318463837BD4680BD04ED00E0DC
:104CA00080B58CB000AFF860B9607A600023FB6219
:104CB000FB68BB62BB6A002B0AD14FF0200383F371
:104CC0001188BFF36F8FBFF34F8F3B6200BFFEE7CA
:104CD000BB68002B03D1BB6A1B6C002B01D10123E5
:104CE00000E00023002B0AD14FF0200383F311884A
:104CF000BFF36F8FBFF34F8FFB6100BFFEE700F084
:104D000093FD0346002B02D17B68002B01D10123C8
:104D100000E00023002B0AD14FF0200383F3118819
:104D2000BFF36F8FBFF34F8FBB6100BFFEE7FFF78D
:104D300065FDBB6A9B6B7B627B6A002B1FD0B968E9
:104D4000B86A06F068FC7B6A5A1EBB6A9A63BB6A43
:104D50001B69002B0FD0BB6A1033184600F0D8FB3C
:104D60000346002B07D03D4B4FF080521A60BFF333
:104D70004F8FBFF36F8FFFF771FD012369E07B68F1
:104D8000002B03D1FFF76AFD002362E0FB6A002BD2
:104D900006D107F11003184600F01CFC0123FB624A
:104DA000FFF75CFD00F0A4F9FFF728FDBB6A93F85C
:104DB00044305BB2B3F1FF3F03D1BB6A002283F8FA
:104DC0004420BB6A93F845305BB2B3F1FF3F03D197
:104DD000BB6A002283F84520FFF740FD3A1D07F12A
:104DE00010031146184600F00BFC0346002B23D19C
:104DF000B86A06F088FC0346002B17D0BB6A243340
:104E00007A681146184600F033FBB86A06F029FCB0
:104E100000F07CF90346002B89D1104B4FF08052F3
:104E20001A60BFF34F8FBFF36F8F80E7B86A06F049
:104E300018FC00F06BF97AE7B86A06F012FC00F093
:104E400065F9B86A06F05FFC0346002B3FF46FAFCC
:104E5000002318463037BD4680BD00BF04ED00E09A
:104E600080B485B000AF786039600023FB6014E047
:104E70000F4AFB6852F83330002B0BD10C49FB680A
:104E80003A6841F833200A4AFB68DB0013447A6829
:104E90005A6006E0FB680133FB60FB68072BE7D92B
:104EA00000BF00BF1437BD465DF8047B704700BFEC
:104EB000089D002080B485B000AF78600023FB60BF
:104EC00016E0104AFB68DB0013445B687A689A427C
:104ED0000BD10C4AFB68002142F83310094AFB68E9
:104EE000DB00134400225A6006E0FB680133FB60DC
:104EF000FB68072BE5D900BF00BF1437BD465DF83E
:104F0000047B7047089D002080B582B000AF7860B8
:104F1000FFF774FC2C4B1B6801332B4A13602B4B9F
:104F20001B68002B09D1294A7B681360264B1B683C
:104F3000012B10D100F0EEFB0DE0254B1B68002B80
:104F400009D1224B1B68DA6A7B68DB6A9A4202D875
:104F50001E4A7B6813601F4B1B6801331D4A136098
:104F60001C4B1A687B689A647B68DB6A01229A4052
:104F7000194B1B681343184A13607B68DA6A13469F
:104F80009B0013449B00154A1A447B68043319465E
:104F9000104606F0D3F8FFF761FC0D4B1B68002BA1
:104FA0000ED00A4B1B68DA6A7B68DB6A9A4207D22A
:104FB0000B4B4FF080521A60BFF34F8FBFF36F8FD0
:104FC00000BF0837BD4680BD209E0020489D0020C0
:104FD0002C9E00203C9E0020289E00204C9D0020FE
:104FE00004ED00E080B584B000AF78600023FB6082
:104FF0007B68002B17D0134B1B68002B0AD04FF097
:10500000200383F31188BFF36F8FBFF34F8FBB6013
:1050100000BFFEE700F06CF80021786800F09CFC0F
:1050200000F074F8F860FB68002B07D1064B4FF0D6
:1050300080521A60BFF34F8FBFF36F8F00BF1037DE
:10504000BD4680BD489E002004ED00E080B586B0DE
:1050500002AF204B01930023009300235A221E49E4
:105060001E4806F0B2FBF860FB68012B02D100F08D
:10507000D9FCF860FB68012B16D14FF0200383F3B5
:105080001188BFF36F8FBFF34F8FBB6000BF144B0E
:105090004FF0FF321A60134B01221A60124B0022AC
:1050A0001A60FFF709FB0EE0FB68B3F1FF3F0AD17E
:1050B0004FF0200383F31188BFF36F8FBFF34F8F3F
:1050C0007B6000BFFEE7094B1B6800BF1037BD4681
:1050D00080BD00BF449E002090C20060E556006085
:1050E000409E00202C9E0020249E0020C401002011
:1050F00080B400AF044B1B680133034A136000BF48
:10510000BD465DF8047B7047489E002080B584B0A2
:1051100000AF0023FB600023BB60414B1B68002BEA
:105120000AD14FF0200383F31188BFF36F8FBFF3D1
:105130004F8F3B6000BFFEE7FFF760FB384B1B68FB
:10514000013B374A1360364B1B68002B61D1354B4E
:105150001B68002B5DD02EE0334BDB68DB68FB6007
:10516000FB681833184606F046F8FB680433184607
:1051700006F041F8FB68DB6A01229A402B4B1B6862
:1051800013432A4A1360FB68DA6A13469B001344F0
:105190009B00274A1A44FB6804331946104605F061
:1051A000CDFFFB68DA6A234B1B68DB6A9A4202D3A5
:1051B000214B01221A601C4B1B68002BCCD1FB68D1
:1051C000002B01D000F014FB1C4B1B687B607B683C
:1051D000002B10D000F046F80346002B02D0164BEF
:1051E00001221A607B68013B7B607B68002BF1D158
:1051F000124B00221A60104B1B68002B09D00123B0
:10520000BB600F4B4FF080521A60BFF34F8FBFF35C
:105210006F8FFFF723FBBB6818461037BD4680BD74
:10522000489E0020209E0020E09D0020289E002017
:105230004C9D0020489D0020349E0020309E002080
:1052400004ED00E080B483B000AF054B1B687B60C9
:105250007B6818460C37BD465DF8047B704700BF7D
:10526000249E002080B586B000AF00237B61474BB1
:105270001B68002B7FD1464B1B6801333B61444ABE
:105280003B6913603B69002B20D1424B1B681B68B4
:10529000002B0AD04FF0200383F31188BFF36F8FE8
:1052A000BFF34F8F3B6000BFFEE73A4B1B68FB60CC
:1052B000394B1B68374A1360374AFB681360374B1A
:1052C0001B680133354A136000F092FA344B1B68B7
:1052D0003A699A4248D32F4B1B681B68002B04D1B4
:1052E0002F4B4FF0FF321A603EE02A4B1B68DB6801
:1052F000DB68BB60BB685B687B603A697B689A422D
:1053000003D2274A7B6813602EE0BB68043318463B
:1053100005F071FFBB689B6A002B04D0BB68183393
:10532000184605F068FFBB68DB6A01229A401D4BF6
:105330001B6813431B4A1360BB68DA6A13469B0061
:1053400013449B00184A1A44BB680433194610469C
:1053500005F0F4FEBB68DA6A144B1B68DB6A9A42FC
:10536000B9D301237B61B6E7114B1B68002B07D033
:1053700001237B6104E00F4B1B6801330D4A13606E
:105380007B6918461837BD4680BD00BF489E002087
:10539000249E0020D89D0020DC9D0020389E002007
:1053A000409E0020289E00204C9D0020489D00200B
:1053B000349E0020309E002080B487B000AF274B81
:1053C0001B68002B03D0264B01221A603FE0244BC0
:1053D00000221A60234B1B68FB60FB68B3FA83F35F
:1053E000FB72FB7AC3F11F037B611F497A69134685
:1053F0009B0013449B000B441B68002B0AD14FF009
:10540000200383F31188BFF36F8FBFF34F8F7B604F
:1054100000BFFEE77A6913469B0013449B00124AC3
:1054200013443B613B695B685A683B695A603B695E
:105430005A683B6908339A4204D13B695B685A68F1
:105440003B695A603B695B68DB68084A136000BFD0
:105450001C37BD465DF8047B704700BF489E0020A6
:10546000349E0020289E00204C9D0020489D002056
:1054700080B584B000AF786039607B68002B0AD1BA
:105480004FF0200383F31188BFF36F8FBFF34F8F6B
:10549000FB6000BFFEE7074B1B68183319467868AE
:1054A00005F070FE0121386800F056FA00BF103791
:1054B000BD4680BD489D002080B586B000AFF86035
:1054C000B9607A60FB68002B0AD14FF0200383F3A8
:1054D0001188BFF36F8FBFF34F8F7B6100BFFEE773
:1054E0000A4B1B6818331946F86805F027FE7B68DD
:1054F000002B02D04FF0FF33BB607968B86800F032
:105500002BFA00BF1837BD4680BD00BF489D002064
:1055100080B586B000AF78607B68DB68DB683B6194
:105520003B69002B0AD14FF0200383F31188BFF3AE
:105530006F8FBFF34F8FFB6000BFFEE73B691833EF
:10554000184605F058FE1D4B1B68002B1CD13B690B
:105550000433184605F04FFE3B69DB6A01229A408E
:10556000174B1B681343164A13603B69DA6A1346EC
:105570009B0013449B00134A1A443B6904331946A9
:10558000104605F0DBFD05E03B69183319460E486F
:1055900005F0D4FD3B69DA6A0C4B1B68DB6A9A4262
:1055A00005D901237B610A4B01221A6001E0002327
:1055B0007B617B6918461837BD4680BD489E002038
:1055C000289E00204C9D0020E09D0020489D00204A
:1055D000349E002080B483B000AF7860064B1A6818
:1055E0007B681A60054B1A687B685A6000BF0C37ED
:1055F000BD465DF8047B7047389E0020249E002045
:1056000080B588B000AF786039607B68002B0AD124
:105610004FF0200383F31188BFF36F8FBFF34F8FD9
:105620003B6100BFFEE73B68002B0AD14FF020032F
:1056300083F31188BFF36F8FBFF34F8FFB6000BF01
:10564000FEE7FFF7DBF81F4B1B68BB617B685B68FD
:10565000BA69D31A7B613B681B68B3F1FF3F02D183
:105660000023FB6126E07B681A68174B1B689A428F
:105670000AD07B685B68BA699A4205D30123FB6153
:105680003B6800221A6015E03B681B687A699A4201
:105690000BD23B681A687B69D21A3B681A6078683B
:1056A000FFF798FF0023FB6104E03B6800221A60CB
:1056B0000123FB61FFF7D2F8FB6918462037BD468E
:1056C00080BD00BF249E0020389E002080B400AF23
:1056D000034B01221A6000BFBD465DF8047B704792
:1056E000349E002080B582B000AF786000F052F8A0
:1056F000064B1B68012BF9D9054B4FF080521A60FD
:10570000BFF34F8FBFF36F8FF0E700BF4C9D0020BA
:1057100004ED00E080B582B000AF00237B600CE0B8
:105720007A6813469B0013449B00124A13441846A0
:1057300005F0D7FC7B6801337B607B68042BEFD9D5
:105740000D4805F0CEFC0D4805F0CBFC0C4805F0EB
:10575000C8FC0C4805F0C5FC0B4805F0C2FC0B4B1F
:10576000054A1A600A4B054A1A6000BF0837BD4651
:1057700080BD00BF4C9D0020B09D0020C49D002036
:10578000E09D0020F49D00200C9E0020D89D00206C
:10579000DC9D002080B582B000AF19E0FFF72EF845
:1057A000104BDB68DB687B607B680433184605F0D0
:1057B00022FD0D4B1B68013B0B4A13600B4B1B6812
:1057C000013B0A4A1360FFF749F8786806F0DBF8F6
:1057D000064B1B68002BE1D100BF00BF0837BD4658
:1057E00080BD00BFF49D0020209E0020089E002068
:1057F00080B400AF0A4B1B681B68002B04D1094B17
:105800004FF0FF321A6005E0054B1B68DB681B6830
:10581000044A136000BFBD465DF8047B704700BFBB
:10582000D89D0020409E002080B483B000AF0B4B79
:105830001B68002B02D101237B6008E0084B1B682A
:10584000002B02D102237B6001E000237B607B6898
:1058500018460C37BD465DF8047B70472C9E00202F
:10586000489E002080B586B000AF78607B683B61C1
:1058700000237B617B68002B63D0344B1B683A6943
:105880009A420AD04FF0200383F31188BFF36F8F41
:10589000BFF34F8FFB6000BFFEE73B695B6D002BE2
:1058A0000AD14FF0200383F31188BFF36F8FBFF34A
:1058B0004F8FBB6000BFFEE73B695B6D5A1E3B69C3
:1058C0005A653B69DA6A3B691B6D9A4239D03B697C
:1058D0005B6D002B35D13B690433184605F08BFC1A
:1058E0000346002B0AD13B69DB6A012202FA03F36B
:1058F000DA43174B1B681340154A13603B691A6D56
:105900003B69DA623B69DB6AC3F105023B699A6174
:105910003B69DB6A01229A400D4B1B6813430C4A1A
:1059200013603B69DA6A13469B0013449B00094AE3
:105930001A443B6904331946104605F0FFFB012366
:105940007B617B6918461837BD4680BD489D0020A5
:10595000289E00204C9D002080B584B000AF786068
:105960003960294B1B68FB60284B1B6804331846C1
:1059700005F041FC0346002B0BD1244B1B68DB6A6E
:10598000012202FA03F3DA43214B1B681340204A39
:1059900013607B68B3F1FF3F0AD13B68002B07D04F
:1059A0001A4B1B68043319461A4805F0C7FB26E05A
:1059B000FA687B681344BB60144B1B68BA685A6072
:1059C000BA68FB689A4209D2134B1A680F4B1B68DE
:1059D00004331946104605F0D5FB10E00F4B1A684A
:1059E0000A4B1B6804331946104605F0CBFB0C4BE1
:1059F0001B68BA689A4202D2094ABB68136000BFAA
:105A00001037BD4680BD00BF249E0020489D002069
:105A1000289E00200C9E0020DC9D0020D89D0020A8
:105A2000409E002080B584B002AF00237B6000F070
:105A3000DFFA114B1B68002B0AD0104B0193042393
:105A400000930023B4220E490E4805F0BEFE786094
:105A50007B68002B0AD14FF0200383F31188BFF33A
:105A60006F8FBFF34F8F3B6000BFFEE77B68184628
:105A70000837BD4680BD00BF7C9E0020809E002070
:105A800058C40060A7B9006080B58AB000AFF86064
:105A9000B9607A603B6000237B62FB68002B0AD10F
:105AA0004FF0200383F31188BFF36F8FBFF34F8F45
:105AB0003B6200BFFEE71A4B1B68002B2AD0BB6875
:105AC0003B617B687B61FB68BB61BB68052B18DCB5
:105AD000FFF7AAFE0346022B09D1114B186807F104
:105AE000100100233A6BFEF7DDFF786212E00C4BE9
:105AF000186807F1100100230022FEF7D3FF786237
:105B000008E0074B186807F1100100233A6805F018
:105B100050FC78627B6A18462837BD4680BD00BFBE
:105B20007C9E002080B588B002AF78603960224B3F
:105B30001B68DB68DB687B617B690433184605F012
:105B40005AFB7B6993F8283003F00403002B22D022
:105B50007B699A697B68D1187B683A68786900F03C
:105B6000BFF80346002B1FD00023009300237A6860
:105B700000217869FFF788FF38613B69002B13D15A
:105B80004FF0200383F31188BFF36F8FBFF34F8F64
:105B9000FB6000BFFEE77B6993F8283023F0010328
:105BA000DAB27B6983F828207B691B6A7869984799
:105BB00000BF1837BD4680BD749E002080B584B0FC
:105BC00000AF78603960FFF793FA07F108031846D1
:105BD00000F066F8F860BB68002B30D13B68002B02
:105BE0000AD17A68FB689A4206D8FFF78FFAF968FB
:105BF0007868FFF797FF24E03B68002B08D0134B31
:105C00001B681B68002B01D1012300E000233B60CF
:105C10000F4B18687A68FB68D31A3A68194605F082
:105C2000A0FDFFF773FA0346002B0AD1094B4FF092
:105C300080521A60BFF34F8FBFF36F8F01E0FFF701
:105C400065FA00BF1037BD4680BD00BF789E0020BA
:105C50007C9E002004ED00E080B485B000AF786049
:105C60000E4B1B681B68002B01D1012200E00022B3
:105C70007B681A607B681B68002B05D1074B1B688B
:105C8000DB681B68FB6001E00023FB60FB681846D3
:105C90001437BD465DF8047B704700BF749E00203A
:105CA00080B584B000AF7860FFF7CCFAF8600B4B9A
:105CB0001B68FA689A4205D200F036F97B68012227
:105CC0001A6002E07B6800221A60044AFB681360D5
:105CD000FB6818461037BD4680BD00BF849E00207B
:105CE00080B586B000AFF860B9607A603B60002391
:105CF0007B61FB68BA685A60FB68FA681A61BA6827
:105D00007B689A4212D87A683B68D21AFB689B6912
:105D10009A4202D301237B611BE0104B1A68FB6897
:105D200004331946104605F02DFA12E07A683B68F4
:105D30009A4206D2BA683B689A4202D301237B6139
:105D400007E0074B1A68FB6804331946104605F054
:105D500019FA7B6918461837BD4680BD789E002029
:105D6000749E002080B58EB002AFCAE07B68002B25
:105D700018DA3B1D0433FB62FB6A002B0AD14FF09B
:105D8000200383F31188BFF36F8FBFF34F8FFB6145
:105D900000BFFEE7FB6A1B68FA6A5068FA6A9268FD
:105DA000114698477B68002BC0F2AA80FB68BB6253
:105DB000BB6A5B69002B04D0BB6A0433184605F04C
:105DC0001AFA3B461846FFF76BFF78627B68092B8F
:105DD00000F2978001A252F823F000BF055E006038
:105DE000055E0060055E0060795E00608D5E0060AB
:105DF000D75E0060055E0060055E0060795E006051
:105E00008D5E0060BB6A93F8283043F00103DAB27C
:105E1000BB6A83F82820BA68BB6A9B69D118BB6843
:105E20007A6AB86AFFF75CFF0346002B69D0BB6A49
:105E30001B6AB86A9847BB6A93F8283003F00403DA
:105E4000002B5ED0BA68BB6A9B691A44002300939A
:105E500000230021B86AFFF717FE38623B6A002B67
:105E60004FD14FF0200383F31188BFF36F8FBFF33F
:105E70004F8FBB6100BFFEE7BB6A93F8283023F069
:105E80000103DAB2BB6A83F828203AE0BB6A93F8D0
:105E9000283043F00103DAB2BB6A83F82820BA68DD
:105EA000BB6A9A61BB6A9B69002B0AD14FF0200341
:105EB00083F31188BFF36F8FBFF34F8F7B6100BFF8
:105EC000FEE7BB6A9A697B6AD1187B6A7A6AB86A0C
:105ED000FFF706FF15E0BB6A93F8283003F00203D2
:105EE000002B03D1B86AFEF753FA0AE0BB6A93F8B5
:105EF000283023F00103DAB2BB6A83F8282000E0DF
:105F000000BF084B1B68391D00221846FEF7C8FE6B
:105F10000346002B7FF42AAF00BF00BF3037BD46D9
:105F200080BD00BF7C9E002080B588B002AF48E0F5
:105F30002D4B1B68DB681B683B612B4B1B68DB68C8
:105F4000DB68FB60FB680433184605F054F9FB6816
:105F50001B6AF8689847FB6893F8283003F004033D
:105F6000002B2ED0FB689B693A691344BB60BA686A
:105F70003B699A420ED9FB68BA685A60FB68FA68B6
:105F80001A61194B1A68FB6804331946104605F06C
:105F9000F9F816E00023009300233A690021F8681D
:105FA000FFF772FD78607B68002B0AD14FF0200369
:105FB00083F31188BFF36F8FBFF34F8F3B6000BF38
:105FC000FEE7094B1B681B68002BB1D1064B1B6811
:105FD0007B61064B1B68044A1360044A7B691360AB
:105FE00000BF1837BD4680BD749E0020789E0020FB
:105FF00080B500AFFEF702FC124B1B68002B1DD1D1
:10600000114805F06EF8114805F06BF8104B0E4A78
:106010001A60104B0D4A1A60002210210A2005F068
:1060200014F90346074A1360064B1B68002B05D082
:10603000044B1B6808491846FEF712FFFEF70EFCDA
:1060400000BF80BD7C9E00204C9E0020609E0020F2
:10605000749E0020789E002060C40060054BD3F839
:10606000703213F0100F02D1034B186870470348C9
:10607000704700BF00800D40889E002000366E01F2
:1060800008B5D8B90F4B4FF08042C3F858210D4BDB
:10609000D3F8703213F4803FF9D00A4B4FF48032BA
:1060A000C3F85421074BD3F8503113F4004FF9D003
:1060B000044B4FF48032C3F8582108BD024801F068
:1060C000FFFB00BF00800D4068C4006020B9054B95
:1060D0001022C3F874227047024B1022C3F87822B2
:1060E000704700BF00800D40034AD2F8703243F081
:1060F0000103C2F87032704700800D40104AD2F898
:10610000803043F00303C2F8803002F5F212D2F877
:10611000403143F00203C2F84031002301E000BFE8
:106120000133084A9342FAD90749D1F82031074A86
:106130001A4041F201731343C1F820310120704726
:1061400000C00F407F1A060000800D40FEE0FFFFF8
:1061500008B50F4B1B6913F4005F15D00C4A136987
:1061600043F0400313610B4B1A6B22F000421A6399
:106170001A6B22F080421A6300221A601A6B42F4F2
:10618000C6121A63012008BD034800F061F8EAE76F
:1061900000800D4000900D40FCC400600F490B686A
:1061A00023F4E0330279920392B2134343F4803331
:1061B0000B600A680A4B1340026802F07F02134327
:1061C00043F400530B60054B1B68002BFBDA034ABA
:1061D000136823F480331360704700BF00800D40C4
:1061E00080CFFFFF184B1A6B22F4E032017B89034A
:1061F00089B20A4342F480321A63196B134A0A4087
:10620000017801F001010A4342F400521A63426826
:1062100022F040421A65826822F040421A66428AA1
:10622000C2F30E02017CC90389B20A43C18942EA62
:1062300001421A64044B1B6B002BFBDA024A136BFE
:1062400023F480331363704700800D40FECFFFFFBF
:106250000F490B6923F4E0334278920392B213435F
:1062600043F480330B610A690A4B134002785200F1
:1062700002F00202134343F441530B61044B1B69C8
:10628000002BFBDA024A136923F480331361704751
:1062900000800D40BDCFFFFF014B00221A62704706
:1062A00000800D40024B4FF480521A67704700BFC8
:1062B00000800D40024B4FF48052C3F8A02070477D
:1062C00000800D4010B4837803F0030243799B00F3
:1062D00003F00C031343184CD4F8E02022F4E0320E
:1062E000C178890389B20A4342F48032C4F8E020BD
:1062F00002780AB143F4005302790AB143F48013DF
:1063000042780AB143F400130B49D1F8E0000B4A7C
:1063100002401343C1F8E030074BD3F8E030002BC4
:10632000FADA054AD2F8E03023F48033C2F8E030DC
:106330005DF8044B704700BF00800D40F0EFFFFF99
:1063400070B5044601467F4805F045FB10B90025AD
:10635000284670BD7B4E2146304605F045FB05467C
:106360002146304605F031FB0028F1D1764B9C42A6
:1063700058D00AD9754B9C4200F0CE8032D9744B6C
:106380009C4240F0DD80734DE2E7A3F5A0039C4200
:1063900000F0CB8013D9704B9C4221D1694C206D09
:1063A000226E0023A5FB000105F070FE236B13F0A5
:1063B000010F31D0162303FB05F50544C8E70D2C6A
:1063C00022D0A3F580139C4208D15E4B1B6913F0C9
:1063D000020F25D0162303FB05F5B9E70025B7E723
:1063E0000025B5E75D4B9C425BD003F580039C42E2
:1063F00008D1544BD3F8E03003F00303584A52F865
:106400002350A5E70025A3E74E4B1B6803F07F034D
:1064100003FB05F56D089BE705EB8505AD00CCE7B3
:106420001423D8E7474C266F06F07F06D4F8800087
:10643000D4F890200023A5FB000105F027FE06FB01
:106440000505236F03F4C013B3F5002F1FD0B3F578
:10645000801F04D013B1434801F032FAAD08394B24
:10646000D3F8703123F07F4323F4FE0323F4FF437A
:1064700023F07F03B3F5000F3FF46AAF09D8002B78
:106480003FF466AFB3F5004F08D16D0860E76D08C3
:10649000E5E7354A934201D1AD0859E7334801F0A9
:1064A0000FFA284CD4F8A06006F07F06D4F8B000AC
:1064B000D4F8C0200023A5FB000105F0E7FD06FB92
:1064C0000505D4F8A03003F4C013B3F5002F19D09C
:1064D000B3F5801F04D013B1254801F0F1F9AD08E0
:1064E000184BD3F8703103F04043B3F1004F3FF441
:1064F0002FAF09D8002B3FF42BAFB3F1804F08D159
:106500006D0825E76D08EBE7B3F1404F01D1AD0809
:106510001EE7184801F0D4F90A4BD3F8E030C3F372
:1065200081030F4A52F8235012E7064B1B6A13F0FF
:10653000020F03D0162303FB05F509E71423FAE73E
:10654000002505E700800D400D0070001400E000FC
:106550001500E00040787D010D0030000D00A00026
:1065600000C500608CC4006000808000A8C400608A
:10657000C4C40060E0C4006010B40B4CD4F8002127
:10658000C000BF23834022EA0302802383401343D9
:10659000C4F8003101F03F0181401143C4F80011FB
:1065A0005DF8044B704700BF00800D4010B40B4CE9
:1065B000D4F8F020C000BF23834022EA03028023E6
:1065C00083401343C4F8F03001F03F018140114390
:1065D000C4F8F0105DF8044B704700BF00800D4018
:1065E00098B108B5A1FB00014FF0FF338342074B80
:1065F0008B4107D3064A002305F048FD400005F013
:10660000FFF908BD034801F05BF970473F420F00F6
:10661000C0C62D0010C5006008B51F2906D842B9B4
:10662000012303FA01F1C0F8881008BD044801F005
:1066300047F9012303FA01F1C0F88410F5E700BF20
:106640003CC5006008B5B0F5006F0DD24FEA102CC4
:1066500000F01F0301FA03F203219940044800EB04
:106660008C0005F0D3F908BD024801F029F900BFFC
:1066700068C00F4058C5006008B5024600200828D1
:1066800006D8064B53F82030934201D00130F6E78C
:10669000082800D808BD024801F012F97CC5006046
:1066A000B4C500602DE9784779B10646944688461E
:1066B0000A686AB10B7A042B0DD84B7A042B0DD8DB
:1066C000964604200024A2460FE0654801F0F8F841
:1066D000644801F0F5F8644801F0F2F8634801F00D
:1066E000EFF8511A1AE00130C0B220281CD80CEB88
:1066F0008C035B00014600FB02F9B3FBF9F30533A1
:106700005B4DA5FB0353C3F3CF0303B9012303FB85
:1067100001F1BCFBF1F18A42E3D2891A8E45E2D342
:106720008E4604469A46DEE7524BA3FB02325209DC
:1067300002EB4202724503D240F22150BDE8788755
:106740003046FFF799FF4C4B33F9100005F06BF919
:10675000304605F06DF93369221FD2B2032A01D801
:1067600043F4003323F0F852631E1B0603F0F85382
:106770001343424A1A40CAF30C031343336133698B
:1067800023F000533361B3693D49194098F8040080
:1067900098F80F301B0203F4E063034398F80E20CF
:1067A000920002F0040213430B4398F80520012ADB
:1067B0004DD008B143F01003B361326922F40052A6
:1067C00098F807305B0303F400531343336198F8E0
:1067D000092098F8083043EA0243F362B36A43F0B1
:1067E0008803B362B36A43F44043B362716A98F8B2
:1067F0000D301B0103F0100398F80C20520102F039
:10680000200213430B43736298F80A301BB1736A7A
:1068100043F00803736298F80B301BB1736A43F0BE
:106820000103736298F80630C3B1164A73691343C3
:106830007361B36998F810200AB143F4002398F803
:1068400011200AB143F48023B361002076E710B130
:1068500023F40063B0E743F40063ADE70A4AE5E7D9
:10686000F0C5006014C6006044C60060A0C60060A9
:10687000CDCCCCCC1F85EB51A0C5006000E0FFFF64
:10688000E8F8FFFF00C01FE000C01FC010B5B8B19E
:1068900004461422002105F013FA4FF4E13323607B
:1068A000002323716371A371E37123726372A37276
:1068B000E37263732373A373E3732374637410BD70
:1068C000014800F0FDFF00BFFCC6006008B58C4623
:1068D00051B9094800F0F4FF436913F4000FFBD0ED
:1068E0001CF8013BC361013A002AF5D1436913F456
:1068F000800FFBD0002008BD20C7006008B5044B06
:106900001B68044A516804489847BFF34F8F08BD7D
:10691000B49E0020909E00200040184008B5044B13
:106920001B68044A916804489847BFF34F8F08BD1D
:10693000B49E0020909E00200080184008B5044BB3
:106940001B68044AD16804489847BFF34F8F08BDBD
:10695000B49E0020909E002000C0184008B5044B53
:106960001B68044A116904489847BFF34F8F08BD5C
:10697000B49E0020909E00200000194008B5044BF2
:106980001B68044A516904489847BFF34F8F08BDFC
:10699000B49E0020909E00200040194008B5044B92
:1069A0001B68044A916904489847BFF34F8F08BD9C
:1069B000B49E0020909E00200080194008B5044B32
:1069C0001B68044AD16904489847BFF34F8F08BD3C
:1069D000B49E0020909E002000C0194008B5044BD2
:1069E0001B68044A116A04489847BFF34F8F08BDDB
:1069F000B49E0020909E002000001A4070B571B136
:106A00000A7842B14B689B0203F4F8438363836BBB
:106A100043F4807383630124012C03DD70BD0748B8
:106A200000F04EFFE6B2064D3146284605F009F863
:106A30003146284605F00DF80134EDE744C7006003
:106A400000400D4008B5044B1B68044A51680448D7
:106A50009847BFF34F8F08BDC49E0020B89E00200A
:106A600000002C4008B5044B1B68044A9168044898
:106A70009847BFF34F8F08BDC49E0020B89E0020EA
:106A800000402C4010B5534BD3F8882042F47002DC
:106A9000C3F88820504A9A60504A13899BB223F069
:106AA00001039BB213814E490B899BB223F0010372
:106AB0009BB20B81138813F0040F05D013889BB28F
:106AC00023F004039BB21380454B1B8813F0040F83
:106AD00006D0434A13889BB223F004039BB2138071
:106AE000404B1B6813F4005F4BD03E4B3E4A5A604C
:106AF0003C4A4FF6FF739360136823F0A00343F002
:106B0000200313604FF0E0231B6913F0010F05D041
:106B10004FF0E022136923F0010313612D4B5B69F1
:106B200013F4003F18D12B4B5B6913F4003F13D1D2
:106B3000BFF34F8FBFF36F8F264B0022C3F8502255
:106B4000BFF34F8FBFF36F8F5A6942F400325A611F
:106B5000BFF34F8FBFF36F8F1E4B5B6913F4803F02
:106B600034D11C4B5B6913F4803F2FD1194B0022A9
:106B7000C3F88420BFF34F8FD3F88040C4F34E3066
:106B800008E0184B4CF220525A604DF628125A6019
:106B9000AEE71846C4F3C90243F6E07303EA4013B4
:106BA00043EA82730B49C1F860321346013A002B65
:106BB000F2D1431E0028ECD1BFF34F8F4B6943F451
:106BC00080334B61BFF34F8FBFF36F8F04F04DFFE6
:106BD00010BD00BF00ED00E00020006000800B4011
:106BE00000000D4000C00B4020C528D910B586B06C
:106BF0000C4601A8FFF74AFE63680193237A8DF8DB
:106C00000830637A8DF80B30A37A003B18BF01235C
:106C10008DF81530E37A003B18BF01238DF814304E
:106C2000237B003B18BF01238DF80E30637B003BB4
:106C300018BF01238DF80F3001238DF812308DF825
:106C40001330A07B226801A9054B53F82000FFF701
:106C500029FD18B104F00AFF06B010BD0020FBE7C3
:106C600068C7006038B578B10C46054679B18B7BB2
:106C7000082B0FD80A4A52F8233073B1FFF7B6FF3A
:106C800008B9A37B2B7038BD064800F019FE0648F2
:106C900000F016FE054800F013FE054800F010FE57
:106CA00068C700608CC70060B8C70060E4C70060B8
:106CB0004CC8006008B548B159B16AB10078084BBA
:106CC00053F82000FFF702FE002008BD054800F041
:106CD000F7FD054800F0F4FD044800F0F1FD00BFA9
:106CE00068C7006098C80060C4C80060F0C8006051
:106CF00010B538B10446042004F043FB28B12060ED
:106D0000002010BD024800F0DBFD43F2DD70F8E723
:106D100018C9006008B520B1006804F0F4FB002039
:106D200008BD014800F0CCFD54C9006080B483B0B8
:106D300000AF78600B4A7B6843F0010353600A4B55
:106D40005B6A094A43F480335362BFF34F8F00BF3D
:106D5000BFF36F8F00BF00BF0C37BD465DF8047BEB
:106D6000704700BF90ED00E000ED00E080B400AFA0
:106D7000BFF35F8F00BF084B5B6A074A23F4803381
:106D80005362064B5B68054A23F00103536000BF62
:106D9000BD465DF8047B704700ED00E090ED00E03B
:106DA000C2B2054BD358C0F34C32C0F3042082402A
:106DB000134023FA00F0704700C00F40C2B2054BE9
:106DC000D358C0F34C32C0F304208240134023FA5E
:106DD00000F0704700C00F40054BD3F8703213F03D
:106DE000100F02D1034B186870470348704700BF6B
:106DF00000800D40889E002000366E0110B50E48C0
:106E0000FFF7CEFF68B90D48FFF79AFA0C4CA4FBC8
:106E1000003084080B48FFF7D1FF0130B4FBF0F0DD
:106E200010BDFFF7D9FF04460648FFF7C7FF013042
:106E3000B4FBF0F0F4E700BF242600800D00100042
:106E4000ABAAAAAA24E0078070B57E4D7E4C641BD5
:106E50007E4B5B6913F4003F0FD0BFF34F8FBFF33E
:106E60006F8F7A4B5A6922F400325A610022C3F8BC
:106E70005022BFF34F8FBFF36F8F744B5B6913F4D6
:106E8000803F27D0714B0022C3F88420BFF34F8F7F
:106E90005A6922F480325A61BFF34F8FD3F8806071
:106EA000C6F34E3000E01846C6F3C90243F6E0735D
:106EB00003EA401343EA82736449C1F8743213460B
:106EC000013A002BF2D1431E0028ECD1BFF34F8FC3
:106ED000BFF36F8FFFF74AFF5C4B1022C3F89C2073
:106EE0005B4AC3F8A0205B4AC3F89C205A4AC3F807
:106EF000A0205A49C3F89C10C3F8A0201422C3F85C
:106F00009C20574AC3F8A0201522C3F89C20554A5C
:106F1000C3F8A0205449C3F89C10C3F8A020534ADA
:106F2000C3F89C20524AC3F8A020524AC3F89C20C0
:106F3000514AC3F8A020514AC3F89C20504AC3F8D4
:106F4000A020002300E0013324FA03F2012AFAD83A
:106F5000CBB1B5FBF4F204FB125292BB01229A4072
:106F6000A24231D1042B32D925F01F0242F01A027D
:106F70003649C1F89C20013B5B0003F03E03414AC7
:106F80001A43C1F8A020314C3F4BC4F89C303F4B12
:106F9000C4F8A0303E4BC4F89C303E4BC4F8A0303F
:106FA0000420FFF7C3FE636913F4803F2FD1002252
:106FB000C4F88420BFF34F8FD4F88040C4F34E3020
:106FC00009E0354800F07CFC344800F079FC344896
:106FD00000F076FC1846C4F3C90243F6E07303EAF6
:106FE000401343EA82731949C1F860321346013AEB
:106FF000002BF2D1431E0028ECD1BFF34F8F4B6919
:1070000043F480334B61BFF34F8FBFF36F8F0F4B50
:107010005B6913F4003F13D1BFF34F8FBFF36F8F42
:107020000A4B0022C3F85022BFF34F8FBFF36F8F7C
:107030005A6942F400325A61BFF34F8FBFF36F8F2A
:1070400070BD00BF0000E0810000008200ED00E0A4
:107050003F00101011000080390010031200006082
:107060003B0010032100030316000020170020201E
:1070700025000303180028202300030319000080C3
:1070800031000303010008031B0000402B00100324
:107090001C0000422700100390C90060B8C90060BE
:1070A000E4C9006070B55FFA80FE104D5EF80540DF
:1070B000C0F34C33C0F30426B34024EA030CB140C0
:1070C0000B404CEA03034EF80530B0F1044F09D2EF
:1070D000820E202A05D0054B9B6CD34013F0010F84
:1070E000F9D170BD024800F0EBFB00BF00C00F40BB
:1070F000FCC9006038B55FFA80FE114C5EF80420D0
:10710000C0F34C33C0F30425AB4022EA0302A9408C
:107110000B4013434EF80430B0F1044F0CD24FEA49
:10712000906CBCF1200F06D0054B9A6C012303FA3A
:107130000CF31A42F8D138BD024800F0C1FB00BF81
:1071400000C00F408CCA006008B5B0F5006F0DD2CA
:107150004FEA102C00F01F0301FA03F203219940BB
:10716000044800EB8C0004F036FD08BD024800F036
:10717000A7FB00BF68C00F401CCB0060014B18602C
:10718000704700BF889E0020014B1860704700BF09
:107190008C9E002010B48468054B2340890601F0C2
:1071A0008061194341EA024181605DF8044B7047F8
:1071B000FFFF00FB10B54FF40040FFF7E5FFDD4B8C
:1071C000D3F8C02242F48032C3F8C022D3F8C022E0
:1071D00022F40032C3F8C022D748FFF7CFFF0020C7
:1071E000FEF74EFFFEF780FF0120FEF76FFFD34A48
:1071F000136823F0FF0343F07F0313600121D0489D
:10720000FFF750FF0121CF48FFF74CFFCE4AD3686C
:1072100023F01F0343F01303D360CB4B1B68002BF9
:10722000FBDA0021C948FFF765FF4FF4887004F0CE
:10723000DFFC4FF4847004F0DBFC40F2162004F015
:10724000D7FC4FF4067004F0D3FC40F20E2004F09B
:10725000CFFC0321BE48FFF74DFF0121BD48FFF7DA
:1072600049FF0421BC48FFF745FF4FF48A7004F042
:10727000BFFC4FF48B7004F0BBFC182004F0B8FC8A
:107280001A2004F0B5FC4FF4867004F0B1FC012123
:10729000B248FFF72FFF40F2026004F0A9FC04217E
:1072A000AF48FFF727FF0021AE48FFF7FBFE40F293
:1072B000046004F09DFC0421AB48FFF71BFF002194
:1072C000AA48FFF7EFFE4FF4417004F091FC07214C
:1072D0004FF21400FFF70EFF0021A548FFF7E2FE72
:1072E0000021A448FFF7DEFE40F20A6004F080FCB3
:1072F0000121A148FFF7FEFE0321A048FFF7D2FEBF
:1073000040F2027004F074FC01219D48FFF7F2FE88
:1073100001219C48FFF7C6FE40F2022004F068FC01
:1073200001219948FFF7E6FE00219848FFF7BAFED1
:107330004FF4807004F05CFC4FF4817004F058FC52
:107340004FF4827004F054FC4FF4837004F050FC4E
:1073500004218F48FFF7CEFE02218E48FFF7A2FEE0
:10736000162004F045FC03218B48FFF7C3FE0221E1
:107370008A48FFF797FE40F2125004F039FC0321CF
:107380008748FFF7B7FE01218648FFF7B3FE0021CB
:107390008548FFF787FE40F2145004F029FC0321D2
:1073A0008248FFF7A7FE01218148FFF7A3FE0021D5
:1073B0008048FFF777FE40F2165004F019FC0321D5
:1073C0007D48FFF797FE01217C48FFF793FE0021DF
:1073D0007B48FFF767FE40F2062004F009FC4FF4FB
:1073E000027004F005FC40F20A2004F001FC0021C8
:1073F0007448FFF77FFE00217348FFF753FE0E200D
:1074000004F0F6FB122004F0F3FB40F2067004F0E7
:10741000EFFB102004F0ECFB142004F0E9FB4FF428
:10742000E16004F0E5FB01216848FFF763FE0221FB
:107430006748FFF737FE4FF4A36004F0D9FB1C2028
:1074400004F0D6FB0C2004F0D3FB4FF48C7004F056
:10745000CFFB40F2023004F0CBFB40F2063004F0E8
:10746000C7FB40F21A5004F0C3FB40F20E6004F078
:10747000BFFB00215748FFF73DFE00215648FFF7AC
:1074800011FE40F20A3004F0B3FB01215348FFF72C
:1074900031FE03215248FFF72DFE05215148FFF729
:1074A00001FE40F20E5004F0A3FB01214E48FFF70D
:1074B00021FE07214D48FFF71DFE03214C48FFF731
:1074C000F1FD40F2025004F093FB01214948FFF71F
:1074D00011FE07214848FFF70DFE03214748FFF73B
:1074E000E1FD4FF4407004F083FB01214448FFF7B5
:1074F00001FE07214348FFF7FDFD03214248FFF746
:10750000D1FD00214148FFF7CDFD4148FEF746FE81
:107510004048FEF767FE1B210020FFF72DF81021E1
:107520000120FFF729F818210220FFF725F8102184
:10753000032071E000800D4000366E0100C00F4056
:10754000186C0080143900140000084014EA00048C
:107550001468008010E0004014FB00801CE00780ED
:1075600024EB00801C30008024F000801C3100805F
:1075700014270080142600801CF700801C7D0080EA
:1075800018FD0080186800803CEB00803C6900809A
:1075900018FA00801864008024790080186E00803A
:1075A00028E6008028E007801C6A00802CE6008026
:1075B0002CE007801C6C008028F6008028F00780F3
:1075C0001C6E008038F307803832008020E207808C
:1075D0002068008024E007802426008038EC0080AA
:1075E00018F7008038EF008030F9008030F6008016
:1075F0003074008030EC008030E90080306700801B
:1076000028E9008028F90080207300800C20008089
:1076100098CB0060A0CB0060FEF7AEFF5E48FEF79F
:1076200017FE21210020FEF7C1FF10210120FEF7E7
:10763000BDFF11210220FEF7B9FF13210320FEF741
:10764000B5FFFEF72FFE554C01225549204604F0A8
:10765000D4FAD4F8703123F40043C4F87031D4F86C
:10766000703123F40003C4F87031236F43F40053E6
:107670002367FEF71FFED4F8A03043F48033C4F82C
:10768000A030D4F8703123F04043C4F87031D4F8FE
:10769000A03043F40053C4F8A0304248FEF712FE75
:1076A00001224149204604F0A8FAFEF7F5FD012227
:1076B0003E49204604F0A1FA236A43F400532362B2
:1076C00003213B48FFF7EEFC00213A48FFF7EAFCB4
:1076D00000213948FFF7E6FC00213848FFF7E2FCBB
:1076E000D4F8603123F01F03C4F86031344B1A6EB4
:1076F00022F070021A661A6E22F00F0242F00102A6
:107700001A661A6E22F460021A661A6E22F4F812D1
:1077100042F490121A661A6E22F480721A661A6E79
:1077200022F080021A661A6E22F080721A66A4F5A0
:10773000303400221146204604F06EFA0022032164
:10774000204604F069FA00220621204604F064FA7B
:1077500000220821204604F05FFA00220A21204678
:1077600004F05AFA002211462046FFF713FD636821
:1077700023F400336360636823F4802363606369E8
:1077800023F080536361636923F0005363610D4B01
:107790000D4A1A6010BD00BFB4CB006000800D40E0
:1077A0000D007000B8CB00600D00E0000D0020005F
:1077B0001872008014390014186C00801C26008098
:1077C00000C00F40C80100200046C32308B502498D
:1077D0000248FFF713F908BDC0CB006000400D4020
:1077E00008B5034A03490448FEF75CFF08BD00BF23
:1077F00000B4C404C8CB00600040184008B5B0F520
:10780000006F0DD24FEA102C00F01F0301FA03F2B3
:1078100003219940044800EB8C0004F025FA08BDD0
:10782000024800F04DF800BF68C00F401CCB00605C
:1078300010B582B040F2024004F023FA4FF4017018
:1078400004F01FFA00240194144B009323462246AF
:107850000221134804F01AFA0194124B00932346B4
:1078600022460221104804F011FA01940F4B0093B4
:107870002346224605210E4804F008FA0D4AD36E2D
:1078800023F00803D36601940B4B00932346224652
:1078900021460A4804F0FAF902B010BDDC821F400C
:1078A000EC801F40E0821F40F0801F4038831F4063
:1078B00048811F4000C00A401C800A4004800A40E2
:1078C00010B504460E490F4804F0FDFA0C49204655
:1078D00004F0F9FA0C49D1F88030013B002BC1F8D3
:1078E000803008DB8B6F5A1C8A670A221A70BDE849
:1078F000104004F0E2B978310A2004F003FAF6E708
:10790000409F0020E0CB0060C89E00202DE9F041A0
:10791000D56880460E461446EB02576905D545F0FA
:107920001005384604F0A3FCA061124B2B408BB12C
:10793000A169384604F0A4FC002806DAE3684FF099
:10794000FF3043F08003E36011E025F4003525F0BB
:107950001005E56032464146384604F097FC20F0B9
:107960000041761AA1690E44A6610028E6D1BDE85F
:10797000F08100BF10000200F8B5304F3C680028CD
:1079800051D10020F8BD2368B3F1805F39D1D4E92B
:10799000013151B10D68B5F1805F06D1DD1C4B6836
:1079A0002B4463608B68A360F1E7B34207DB734548
:1079B00005DC20464FF0005340F80C3BE2E76345FE
:1079C00011D920464FF0005566609B1B40F80C5BB8
:1079D00022F00305033B4219A2604FF0805444514A
:1079E000C2E90131CEE761B9A0EB830000F016F9DE
:1079F0000130C6D04FF0005304F10C00C4E900364A
:107A0000C0E72546A468002CBDD10C3000F006F973
:107A1000431CB6D04FF000538460C0E9003655B91E
:107A200038600C30AEE7C21C0025960806F10A0C3F
:107A300006F1030EE7E7A860F3E700BF849F00208C
:107A400010B5FFF799FF044628B91722034904F03F
:107A50001DFC04F032F9204610BD00BFF5CB0060DC
:107A60002DE9F843C66804463C4B0D46904633402A
:107A70001BB902273846BDE8F883D0F81490484671
:107A800004F0F8FB07460028F3D1B8F1010F2CD021
:107A9000B8F1020F2ED0B8F1000FEAD1002DE8DBCB
:107AA000B00404D52368E26A9A4238BFE362A16950
:107AB000A9420EDC2368E26A934238BF134622696A
:107AC0005818801AA84204DB206B01EB000CAC456F
:107AD00034DC002346F02006A562C4E9013326F415
